:020000040800F2
:1000000000500020B10700086906000875060008C6
:100010007B06000881060008870600080000000033
:100020000000000000000000000000008D06000835
:100030009906000800000000A5060008B1060008A7
:10004000F9070008F9070008F9070008F907000890
:10005000F9070008BD060008F9070008F9070008BD
:10006000F9070008F9070008F9070008F907000870
:10007000F9070008F9070008F9070008F907000860
:10008000F9070008F9070008F9070008F907000850
:10009000F9070008F9070008F9070008F907000840
:1000A000F9070008F9070008F9070008F907000830
:1000B000F9070008C9060008F9070008F907000851
:1000C000F9070008F9070008F9070008F907000810
:1000D000F9070008DD060008F9070008F90700081D
:1000E000F9070008F9070008F907000800000000F8
:1000F0000000000000000000000000000000000000
:0C01000000000000000000005FF808F1A3
:10010C0010B5054C237833B9044B13B10448AFF345
:10011C0000800123237010BD70000020000000003F
:10012C001C2F000808B5034B1BB103490348AFF360
:10013C00008008BD00000000740000201C2F000887
:10014C0080B500AF00F054FB00F042F800F0FEF870
:10015C0000F084F800F0D0F8154801F000FB01F035
:10016C0083FA03461A461349134802F0BFFA0346B2
:10017C00DAB2124B1A70114B1B789AB20F4B1B78D8
:10018C000D490F4801F08DFE0E4B0F4A0F490A48DE
:10019C0002F0ACFA0346DAB2084B1A70074B1B7824
:1001AC009AB2064B1B780449054801F07AFEFEE72B
:1001BC00B0000020342F000830010020A0000020E7
:1001CC00F0000020402F00084C2F0008582F00088A
:1001DC0080B590B000AF07F1180328220021184613
:1001EC0002F07CFA3B1D00221A605A609A60DA60B9
:1001FC001A610123BB614FF48033FB6100233B6226
:10020C000123BB6202237B634FF48033BB634FF447
:10021C00E013FB6307F11803184600F059FE034680
:10022C00002B01D000F060F90F237B600223BB6030
:10023C000023FB604FF480633B6100237B613B1D1B
:10024C000221184601F0C4F80346002B01D000F03F
:10025C004BF900BF4037BD4680BD000080B586B06D
:10026C0000AF07F1080300221A605A609A60DA6046
:10027C003B4600221A605A601D4B1E4A1A601C4BEA
:10028C0048F69F425A601A4B00229A60184B012282
:10029C00DA60174B00221A61154B80229A611448C0
:1002AC0001F032FA0346002B01D000F01DF94FF497
:1002BC008053BB6007F1080319460D4801F07AFB27
:1002CC000346002B01D000F00FF900233B60002304
:1002DC007B603B461946064801F040FD0346002B67
:1002EC0001D000F001F900BF1837BD4680BD00BF3A
:1002FC00B00000200004004080B500AF114B124A42
:10030C001A60104B4FF4E1325A600E4B00229A6087
:10031C000C4B0022DA600B4B00221A61094B0C22A9
:10032C005A61084B00229A61064B0022DA6105489B
:10033C0001F06AFD0346002B01D000F0D5F800BF98
:10034C0080BD00BFF00000200038014080B588B0AF
:10035C0000AF07F1100300221A605A609A60DA604D
:10036C002E4B9B692D4A43F0100393612B4B9B69D9
:10037C0003F01003FB60FB68284B9B69274A43F092
:10038C0020039361254B9B6903F02003BB60BB6882
:10039C00224B9B69214A43F0040393611F4B9B69D9
:1003AC0003F004037B607B681C4B9B691B4A43F086
:1003BC0008039361194B9B6903F008033B603B688E
:1003CC0000224FF40051164800F052FD00224FF469
:1003DC007071144800F04CFD4FF400533B61012345
:1003EC007B610023BB610323FB6107F110031946FA
:1003FC000B4800F0E3FB4FF470733B6101237B610E
:10040C000023BB610323FB6107F110031946054868
:10041C0000F0D4FB00BF2037BD4680BD0010024069
:10042C0000100140000C014080B582B000AF786034
:10043C007B681A68244B1B689A4241D1234B0022DB
:10044C001A604FF40051224800F02AFD214B002283
:10045C001A604FF40071204800F022FD1F4B1B68FE
:10046C0001331E4A13601D4B1B68132B07D91B4B02
:10047C0000221A604FF48071174800F011FD184BE0
:10048C001B680133164A1360154B1B68952B06D954
:10049C00134B00221A6080210F4800F001FD114B14
:1004AC001B6801330F4A13600E4B1B68B3F5FA6FD0
:1004BC0006D30C4B00221A604021074800F0F0FCD8
:1004CC0000BF0837BD4680BDB00000208C00002066
:1004DC000010014090000020000C0140940000200E
:1004EC00980000209C00002080B400AF00BFBD46E7
:1004FC0080BC704780B584B000AF194B9B69184A1B
:10050C0043F001039361164B9B6903F00103BB603D
:10051C00BB68134BDB69124A43F08053D361104B19
:10052C00DB6903F080537B607B680022002105208F
:10053C0000F097FA052000F0B0FA0A4B5B68FB60FC
:10054C00FB6823F0E063FB60FB6843F08063FB60B7
:10055C00044AFB68536000BF1037BD4680BD00BF26
:10056C00001002400000014080B584B000AF7860FC
:10057C007B681B680D4A934213D10D4BDB690C4A07
:10058C0043F00203D3610A4BDB6903F00203FB6007
:10059C00FB68002201211D2000F063FA1D2000F0F1
:1005AC007CFA00BF1037BD4680BD00BF0004004080
:1005BC000010024080B588B000AF786007F11003DE
:1005CC0000221A605A609A60DA607B681B68204AC5
:1005DC00934239D11F4B9B691E4A43F4804393616C
:1005EC001C4B9B6903F48043FB60FB68194B9B69B4
:1005FC00184A43F004039361164B9B6903F0040300
:10060C00BB60BB684FF400733B6102237B61032327
:10061C00FB6107F1100319460F4800F0CFFA4FF4B5
:10062C0080633B6100237B610023BB6107F11003F6
:10063C001946094800F0C2FA00220021252000F0DA
:10064C0010FA252000F029FA00BF2037BD4680BDE6
:10065C0000380140001002400008014080B400AF97
:10066C0000BFBD4680BC704780B400AFFEE780B4CD
:10067C0000AFFEE780B400AFFEE780B400AFFEE74A
:10068C0080B400AF00BFBD4680BC704780B400AFE3
:10069C0000BFBD4680BC704780B400AF00BFBD46F4
:1006AC0080BC704780B500AF00F0E8F800BF80BD9B
:1006BC0080B400AF00BFBD4680BC704780B500AFB2
:1006CC00024801F06FF800BF80BD00BFB0000020F1
:1006DC0080B500AF024801F07DFC00BF80BD00BFBB
:1006EC00F000002080B584B000AF7860114B1B681F
:1006FC00002B02D10F4B104A1A600E4B1B68FB608B
:10070C000C4B1A687B6813446A46934207D901F074
:10071C00BBFF02460C2313604FF0FF3306E0054B82
:10072C001A687B681344034A1360FB681846103739
:10073C00BD4680BDA40000203802002080B400AF6C
:10074C00154B1B68144A43F001031360124B5A6893
:10075C001149124B13404B600F4B1B680E4A23F090
:10076C00847323F4803313600B4B1B680A4A23F405
:10077C0080231360084B5B68074A23F4FE03536025
:10078C00054B4FF41F029A60054B4FF000629A60C4
:10079C0000BFBD4680BC7047001002400000FFF84F
:1007AC0000ED00E0002103E00B4B5B58435004319B
:1007BC000A480B4B42189A42F6D30A4A02E000232D
:1007CC0042F8043B084B9A42F9D3FFF7B7FF01F00C
:1007DC0061FFFFF7B5FC7047D02F00080000002028
:1007EC00700000207000002038020020FEE700009E
:1007FC0080B500AF084B1B68074A43F01003136029
:10080C00032000F023F9002000F008F8FFF772FE37
:10081C000023184680BD00BF0020024080B582B086
:10082C0000AF7860124B1A68124B1B7819464FF4C4
:10083C007A73B3FBF1F3B2FBF3F3184600F03BF918
:10084C000346002B01D001230EE07B680F2B0AD846
:10085C00002279684FF0FF3000F003F9064A7B68FC
:10086C001360002300E0012318460837BD4680BD05
:10087C0000000020080000200400002080B400AF1D
:10088C00054B1B781A46054B1B681344034A13602F
:10089C0000BFBD4680BC704708000020300200201D
:1008AC0080B400AF024B1B681846BD4680BC704735
:1008BC003002002080B485B000AF78607B6803F014
:1008CC000703FB600C4BDB68BB60BA684FF6FF0399
:1008DC001340BB60FB681A02BB68134343F0BF6351
:1008EC0043F40033BB60044ABB68D36000BF1437C9
:1008FC00BD4680BC704700BF00ED00E080B400AF87
:10090C00044BDB681B0A03F007031846BD4680BC8A
:10091C00704700BF00ED00E080B483B000AF034629
:10092C00FB7197F90730002B0BDBFB7903F01F02EF
:10093C00064997F907305B09012000FA02F241F8E9
:10094C00232000BF0C37BD4680BC704700E100E09F
:10095C0080B483B000AF03463960FB7197F9073060
:10096C00002B0ADB3B68DAB20C4997F9073012010D
:10097C00D2B20B4483F800230AE03B68DAB2084990
:10098C00FB7903F00F03043B1201D2B20B441A762D
:10099C0000BF0C37BD4680BC704700BF00E100E0D3
:1009AC0000ED00E080B489B000AFF860B9607A6007
:1009BC00FB6803F00703FB61FB69C3F10703042B1E
:1009CC0028BF0423BB61FB690433062B02D9FB69E6
:1009DC00033B00E000237B614FF0FF32BB6902FA5E
:1009EC0003F3DA43BB681A407B699A404FF0FF313E
:1009FC007B6901FA03F3D9437B680B401343184618
:100A0C002437BD4680BC704780B582B000AF78609B
:100A1C007B68013BB3F1807F01D301230FE00A4ACD
:100A2C007B68013B53600F214FF0FF30FFF790FFC5
:100A3C00054B00229A60044B07221A6000231846CB
:100A4C000837BD4680BD00BF10E000E080B582B025
:100A5C0000AF78607868FFF72DFF00BF0837BD4600
:100A6C0080BD80B586B000AF0346B9607A60FB7379
:100A7C0000237B61FFF742FF78617A68B968786977
:100A8C00FFF790FF024697F90F3011461846FFF713
:100A9C005FFF00BF1837BD4680BD80B582B000AF88
:100AAC000346FB7197F907301846FFF735FF00BF77
:100ABC000837BD4680BD80B582B000AF78607868DD
:100ACC00FFF7A2FF034618460837BD4680BD00005D
:100ADC0080B584B000AF78600023FB737B6893F81B
:100AEC002130022B05D07B6804229A630123FB730F
:100AFC0051E07B681B681A687B681B6822F00E0249
:100B0C001A607B681B681A687B681B6822F00102FC
:100B1C001A607B681B68224A934229D07B681B6849
:100B2C00204A934222D07B681B681F4A93421AD0FA
:100B3C007B681B681D4A934212D07B681B681C4A59
:100B4C0093420AD07B681B681A4A934202D14FF435
:100B5C0080130EE04FF080730BE04FF4803308E00D
:100B6C004FF4805305E04FF4807302E0102300E053
:100B7C000123114A53607B68012283F821207B6892
:100B8C00002283F820207B685B6B002B03D07B68F2
:100B9C005B6B78689847FB7B18461037BD4680BD69
:100BAC00080002401C000240300002404400024099
:100BBC00580002406C0002400000024080B48BB030
:100BCC0000AF7860396000237B6200233B6227E131
:100BDC0001227B6A02FA03F3FB613B681B68FA692A
:100BEC001340BB61BA69FB699A4240F016813B68BD
:100BFC005B68122B34D0122B0DD8022B2BD0022B6E
:100C0C0004D8002B31D0012B1CD048E0032B43D04F
:100C1C00112B1BD043E0894A934226D0874A93423A
:100C2C0006D8874A934220D0864A93421DD036E09C
:100C3C00854A934219D0854A934216D0844A9342EE
:100C4C0013D02CE03B68DB683B6228E03B68DB6838
:100C5C0004333B6223E03B68DB6808333B621EE0F5
:100C6C003B68DB680C333B6219E03B689B68002BEC
:100C7C0002D104233B6212E03B689B68012B05D137
:100C8C0008233B627B68FA691A6108E008233B621F
:100C9C007B68FA695A6102E000233B6200BFBB69C2
:100CAC00FF2B01D87B6801E07B6804337B61BB6957
:100CBC00FF2B02D87B6A9B0002E07B6A083B9B00FF
:100CCC003B617B691A680F213B6901FA03F3DB4333
:100CDC001A40396A3B6901FA03F31A437B691A60BB
:100CEC003B685B6803F08053002B00F09680594BF7
:100CFC009B69584A43F001039361564B9B6903F07F
:100D0C000103BB60BB68544A7B6A9B08023352F8F0
:100D1C002330FB607B6A03F003039B000F2202FA73
:100D2C0003F3DB43FA681340FB607B684B4A934246
:100D3C0013D07B684A4A93420DD07B68494A934250
:100D4C0007D07B68484A934201D1032306E0042371
:100D5C0004E0022302E0012300E000237A6A02F09F
:100D6C00030292009340FA681343FB603A497B6A92
:100D7C009B080233FA6841F823203B685B6803F454
:100D8C008033002B06D0394B1A683849BB691343A2
:100D9C000B6006E0354B1A68BB69DB4333491340E3
:100DAC000B603B685B6803F40033002B06D02F4BC1
:100DBC005A682E49BB6913434B6006E02B4B5A68AB
:100DCC00BB69DB43294913404B603B685B6803F408
:100DDC008013002B06D0254B9A682449BB6913431A
:100DEC008B6006E0214B9A68BB69DB431F491340BB
:100DFC008B603B685B6803F40013002B06D01B4B25
:100E0C00DA681A49BB691343CB6006E0174BDA6802
:100E1C00BB69DB4315491340CB607B6A01337B62B2
:100E2C003B681A687B6A22FA03F3002B7FF4D0AE7E
:100E3C0000BF2C37BD4680BC704700BF000021109E
:100E4C0000001110000012100000311000003210D0
:100E5C000000221000100240000001400008014078
:100E6C00000C01400010014000140140000401403E
:100E7C0080B483B000AF78600B467B8013467B70E8
:100E8C007B78002B03D07A887B681A6103E07B881F
:100E9C001A047B681A6100BF0C37BD4680BC7047D2
:100EAC0080B483B000AF78600B467B807B68DA68D7
:100EBC007B881340002B03D07A887B685A6102E050
:100ECC007A887B681A6100BF0C37BD4680BC7047BE
:100EDC0080B586B000AF78607B68002B01D1012310
:100EEC006CE27B681B6803F00103002B00F0878029
:100EFC00924B5B6803F00C03042B0CD08F4B5B689C
:100F0C0003F00C03082B12D18C4B5B6803F4803379
:100F1C00B3F5803F0BD1894B1B6803F40033002BD6
:100F2C006CD07B685B68002B68D1012346E27B6840
:100F3C005B68B3F5803F06D1804B1B687F4A43F456
:100F4C00803313602EE07B685B68002B0CD17B4BED
:100F5C001B687A4A23F480331360784B1B68774AFA
:100F6C0023F4802313601DE07B685B68B3F5A02F2E
:100F7C000CD1724B1B68714A43F4802313606F4B86
:100F8C001B686E4A43F4803313600BE06B4B1B6899
:100F9C006A4A23F480331360684B1B68674A23F456
:100FAC00802313607B685B68002B13D0FFF778FC01
:100FBC00386108E0FFF774FC02463B69D31A642BD6
:100FCC0001D90323FAE15D4B1B6803F40033002BBA
:100FDC00F0D014E0FFF764FC386108E0FFF760FC28
:100FEC0002463B69D31A642B01D90323E6E1534B28
:100FFC001B6803F40033002BF0D100E000BF7B68CA
:10100C001B6803F00203002B63D04C4B5B6803F0AE
:10101C000C03002B0BD0494B5B6803F00C03082B23
:10102C001CD1464B5B6803F48033002B16D1434B29
:10103C001B6803F00203002B05D07B681B69012B96
:10104C0001D00123BAE13D4B1B6823F0F8027B6809
:10105C005B69DB00394913430B603AE07B681B6921
:10106C00002B20D0364B01221A60FFF719FC386197
:10107C0008E0FFF715FC02463B69D31A022B01D995
:10108C0003239BE12D4B1B6803F00203002BF0D0D4
:10109C002A4B1B6823F0F8027B685B69DB0027494D
:1010AC0013430B6015E0264B00221A60FFF7F8FB88
:1010BC00386108E0FFF7F4FB02463B69D31A022BB8
:1010CC0001D903237AE11D4B1B6803F00203002BAB
:1010DC00F0D17B681B6803F00803002B3AD07B68C7
:1010EC009B69002B19D0174B01221A60FFF7D8FB14
:1010FC00386108E0FFF7D4FB02463B69D31A022B98
:10110C0001D903235AE10D4B5B6A03F00203002B58
:10111C00F0D0012000F0DAFA1CE00A4B00221A6031
:10112C00FFF7BEFB38610FE0FFF7BAFB02463B69E5
:10113C00D31A022B08D9032340E100BF0010024050
:10114C0000004242800442429E4B5B6A03F0020361
:10115C00002BE9D17B681B6803F00403002B00F023
:10116C00A6800023FB75974BDB6903F08053002BA3
:10117C000DD1944BDB69934A43F08053D361914B6F
:10118C00DB6903F08053BB60BB680123FB758E4B9E
:10119C001B6803F48073002B18D18B4B1B688A4A95
:1011AC0043F480731360FFF77BFB386108E0FFF7B3
:1011BC0077FB02463B69D31A642B01D90323FDE06C
:1011CC00814B1B6803F48073002BF0D07B68DB68C9
:1011DC00012B06D17B4B1B6A7A4A43F00103136245
:1011EC002DE07B68DB68002B0CD1764B1B6A754AB3
:1011FC0023F001031362734B1B6A724A23F004033E
:10120C0013621CE07B68DB68052B0CD16D4B1B6AF1
:10121C006C4A43F0040313626A4B1B6A694A43F03D
:10122C00010313620BE0674B1B6A664A23F0010350
:10123C001362644B1B6A634A23F0040313627B68DA
:10124C00DB68002B15D0FFF72BFB38610AE0FFF7AA
:10125C0027FB02463B69D31A41F28832934201D9EB
:10126C000323ABE0574B1B6A03F00203002BEED0B9
:10127C0014E0FFF715FB38610AE0FFF711FB02469B
:10128C003B69D31A41F28832934201D9032395E08A
:10129C004C4B1B6A03F00203002BEED1FB7D012BA0
:1012AC0005D1484BDB69474A23F08053D3617B68F7
:1012BC00DB69002B00F08180424B5B6803F00C0370
:1012CC00082B61D07B68DB69022B46D13F4B002297
:1012DC001A60FFF7E5FA386108E0FFF7E1FA024619
:1012EC003B69D31A022B01D9032367E0354B1B68EA
:1012FC0003F00073002BF0D17B681B6AB3F5803FC1
:10130C0008D1304B5B6823F400327B689B682D4915
:10131C0013434B602B4B5B6823F474127B68196A84
:10132C007B685B6A0B43274913434B60274B0122B5
:10133C001A60FFF7B5FA386108E0FFF7B1FA024618
:10134C003B69D31A022B01D9032337E01D4B1B68D1
:10135C0003F00073002BF0D02FE01C4B00221A601E
:10136C00FFF79EFA386108E0FFF79AFA02463B69EC
:10137C00D31A022B01D9032320E0124B1B6803F074
:10138C000073002BF0D118E07B68DB69012B01D1D5
:10139C00012313E00B4B5B68FB60FB6803F48032AA
:1013AC007B681B6A9A4206D1FB6803F470127B6857
:1013BC005B6A9A4201D0012300E0002318461837DB
:1013CC00BD4680BD001002400070004060004242EB
:1013DC0080B584B000AF786039607B68002B01D198
:1013EC000123D0E06A4B1B6803F007033A689A426A
:1013FC0010D9674B1B6823F0070265493B68134300
:10140C000B60634B1B6803F007033A689A4201D0E8
:10141C000123B8E07B681B6803F00203002B20D08B
:10142C007B681B6803F00403002B05D0594B5B68E9
:10143C00584A43F4E06353607B681B6803F008036D
:10144C00002B05D0534B5B68524A43F460535360F6
:10145C00504B5B6823F0F0027B689B684D4913434B
:10146C004B607B681B6803F00103002B40D07B684A
:10147C005B68012B07D1474B1B6803F40033002B2F
:10148C0015D101237FE07B685B68022B07D1414BB0
:10149C001B6803F00073002B09D1012373E03D4B53
:1014AC001B6803F00203002B01D101236BE0394BC5
:1014BC005B6823F003027B685B68364913434B601F
:1014CC00FFF7EEF9F8600AE0FFF7EAF90246FB686D
:1014DC00D31A41F28832934201D9032353E02D4BA6
:1014EC005B6803F00C027B685B689B009A42EBD153
:1014FC00274B1B6803F007033A689A4210D2244B1F
:10150C001B6823F0070222493B6813430B60204BF6
:10151C001B6803F007033A689A4201D0012332E0BA
:10152C007B681B6803F00403002B08D0194B5B6825
:10153C0023F4E0627B68DB68164913434B607B68DD
:10154C001B6803F00803002B09D0124B5B6823F4D3
:10155C0060527B681B69DB000E4913434B6000F043
:10156C0021F801460B4B5B681B0903F00F030A4A79
:10157C00D35C21FA03F3094A1360094B1B68184624
:10158C00FFF74CF9002318461037BD4680BD00BF4D
:10159C0000200240001002407C2F000800000020B8
:1015AC000400002090B48AB000AF2A4B3C1D0FCB36
:1015BC0084E80F00284B1B883B800023FB61002331
:1015CC00BB6100237B6200237B6100233B62234BC6
:1015DC005B68FB61FB6903F00C03042B02D0082B46
:1015EC0003D02DE01E4B3B622DE0FB699B0C03F0FE
:1015FC000F0307F12802134413F8243C7B61FB69A9
:10160C0003F48033002B13D0144B5B685B0C03F09A
:10161C00010307F12802134413F8283CBB617B69D2
:10162C000F4A02FB03F2BB69B2FBF3F37B6204E0EB
:10163C007B690C4A02FB03F37B627B6A3B6202E030
:10164C00074B3B6200BF3B6A18462837BD4690BC2F
:10165C00704700BF682F0008782F00080010024068
:10166C0000127A0000093D0080B400AF024B1B68E9
:10167C001846BD4680BC70470000002080B500AF06
:10168C00FFF7F2FF0146054B5B681B0A03F00703EB
:10169C00034AD35C21FA03F3184680BD00100240C4
:1016AC008C2F000880B500AFFFF7DEFF0146054B1D
:1016BC005B68DB0A03F00703034AD35C21FA03F3EC
:1016CC00184680BD001002408C2F000880B485B0F5
:1016DC0000AF78600A4B1B680A4AA2FB03235B0A23
:1016EC007A6802FB03F3FB6000BFFB685A1EFA60CA
:1016FC00002BF9D100BF1437BD4680BC704700BF2A
:10170C0000000020D34D621080B582B000AF78602D
:10171C007B68002B01D101231DE07B6893F83D30E1
:10172C00DBB2002B06D17B68002283F83C20786862
:10173C00FEF71AFF7B68022283F83D207B681A684B
:10174C007B6804331946104600F010FA7B680122BE
:10175C0083F83D20002318460837BD4680BD80B471
:10176C0085B000AF78607B681B68DA687B681B68A3
:10177C0042F00102DA607B681B689B6803F0070388
:10178C00FB60FB68062B07D07B681B681A687B68BC
:10179C001B6842F001021A60002318461437BD463C
:1017AC0080BC704780B582B000AF78607B681B68E6
:1017BC001B6903F00203022B22D17B681B68DB68D8
:1017CC0003F00203022B1BD17B681B686FF0020233
:1017DC001A617B6801221A777B681B689B6903F08E
:1017EC000303002B03D0786800F0A4F905E07868B7
:1017FC0000F097F9786800F0A6F97B6800221A7758
:10180C007B681B681B6903F00403042B22D17B68E3
:10181C001B68DB6803F00403042B1BD17B681B687B
:10182C006FF004021A617B6802221A777B681B68CE
:10183C009B6903F44073002B03D0786800F07AF9AD
:10184C0005E0786800F06DF9786800F07CF97B6849
:10185C0000221A777B681B681B6903F00803082BAE
:10186C0022D17B681B68DB6803F00803082B1BD1B3
:10187C007B681B686FF008021A617B6804221A7778
:10188C007B681B68DB6903F00303002B03D07868CB
:10189C0000F050F905E0786800F043F9786800F042
:1018AC0052F97B6800221A777B681B681B6903F06E
:1018BC001003102B22D17B681B68DB6803F010032C
:1018CC00102B1BD17B681B686FF010021A617B68B0
:1018DC0008221A777B681B68DB6903F44073002BC2
:1018EC0003D0786800F026F905E0786800F019F963
:1018FC00786800F028F97B6800221A777B681B68EF
:10190C001B6903F00103012B0ED17B681B68DB689C
:10191C0003F00103012B07D17B681B686FF00102F8
:10192C001A617868FEF780FD7B681B681B6903F001
:10193C008003802B0ED17B681B68DB6803F080036F
:10194C00802B07D17B681B686FF080021A61786866
:10195C0000F051FA7B681B681B6903F04003402BB5
:10196C000ED17B681B68DB6803F04003402B07D16A
:10197C007B681B686FF040021A61786800F0ECF825
:10198C007B681B681B6903F02003202B0ED17B683E
:10199C001B68DB6803F02003202B07D17B681B68D6
:1019AC006FF020021A61786800F01CFA00BF08374B
:1019BC00BD4680BD80B584B000AF786039607B686F
:1019CC0093F83C30012B01D10223A6E07B68012265
:1019DC0083F83C207B68022283F83D207B681B68DF
:1019EC009B68FB60FB6823F07703FB60FB6823F4C8
:1019FC007F43FB607B681B68FA689A603B681B68D6
:101A0C00402B67D0402B0BD8102B73D0102B02D847
:101A1C00002B6FD078E0202B6CD0302B6AD073E089
:101A2C00702B0DD0702B04D8502B33D0602B41D0A1
:101A3C006AE0B3F5805F66D0B3F5005F17D063E062
:101A4C007B6818683B6899683B685A683B68DB6838
:101A5C0000F065F97B681B689B68FB60FB6843F0D2
:101A6C007703FB607B681B68FA689A604CE07B68C4
:101A7C0018683B6899683B685A683B68DB6800F0FB
:101A8C004EF97B681B689A687B681B6842F480423D
:101A9C009A6039E07B6818683B6859683B68DB687A
:101AAC001A4600F0C5F87B681B685021184600F0F8
:101ABC001CF929E07B6818683B6859683B68DB684F
:101ACC001A4600F0E3F87B681B686021184600F0AA
:101ADC000CF919E07B6818683B6859683B68DB684F
:101AEC001A4600F0A5F87B681B684021184600F0E8
:101AFC00FCF809E07B681A683B681B6819461046BD
:101B0C0000F0F3F800E000BF7B68012283F83D2071
:101B1C007B68002283F83C20002318461037BD4612
:101B2C0080BD80B483B000AF786000BF0C37BD4679
:101B3C0080BC704780B483B000AF786000BF0C37B6
:101B4C00BD4680BC704780B483B000AF786000BFE6
:101B5C000C37BD4680BC704780B483B000AF786052
:101B6C0000BF0C37BD4680BC7047000080B485B008
:101B7C0000AF786039607B681B68FB607B68294A22
:101B8C0093420BD07B68B3F1804F07D07B68264A19
:101B9C00934203D07B68254A934208D1FB6823F01B
:101BAC007003FB603B685B68FA681343FB607B68FF
:101BBC001C4A93420BD07B68B3F1804F07D07B68F3
:101BCC00194A934203D07B68184A934208D1FB68A8
:101BDC0023F44073FB603B68DB68FA681343FB60DB
:101BEC00FB6823F080023B685B691343FB607B68F6
:101BFC00FA681A603B689A687B68DA623B681A6814
:101C0C007B689A627B68074A934203D13B681A69E6
:101C1C007B681A637B6801225A6100BF1437BD468A
:101C2C0080BC7047002C01400004004000080040BC
:101C3C0080B487B000AFF860B9607A60FB681B6A4B
:101C4C007B61FB681B6A23F00102FB681A62FB686C
:101C5C009B693B613B6923F0F0033B617B681B0193
:101C6C003A6913433B617B6923F00A037B617A6910
:101C7C00BB6813437B61FB683A699A61FB687A69BC
:101C8C001A6200BF1C37BD4680BC704780B487B059
:101C9C0000AFF860B9607A60FB681B6A23F0100231
:101CAC00FB681A62FB689B697B61FB681B6A3B6182
:101CBC007B6923F470437B617B681B037A69134354
:101CCC007B613B6923F0A0033B61BB681B013A6954
:101CDC0013433B61FB687A699A61FB683A691A6243
:101CEC0000BF1C37BD4680BC704780B485B000AFC8
:101CFC00786039607B689B68FB60FB6823F070033D
:101D0C00FB603A68FB68134343F00703FB607B6896
:101D1C00FA689A6000BF1437BD4680BC704780B427
:101D2C0087B000AFF860B9607A603B60FB689B6875
:101D3C007B617B6923F47F437B613B681A027B6880
:101D4C001A43BB6813437A6913437B61FB687A6956
:101D5C009A6000BF1C37BD4680BC704780B485B00C
:101D6C0000AF786039607B6893F83C30012B01D16F
:101D7C00022332E07B68012283F83C207B6802223C
:101D8C0083F83D207B681B685B68FB607B681B6885
:101D9C009B68BB60FB6823F07003FB603B681B68AF
:101DAC00FA681343FB60BB6823F08003BB603B689D
:101DBC005B68BA681343BB607B681B68FA685A603F
:101DCC007B681B68BA689A607B68012283F83D20A7
:101DDC007B68002283F83C20002318461437BD464C
:101DEC0080BC704780B483B000AF786000BF0C3704
:101DFC00BD4680BC704780B483B000AF786000BF34
:101E0C000C37BD4680BC704780B582B000AF78609F
:101E1C007B68002B01D101233FE07B6893F83930BC
:101E2C00DBB2002B06D17B68002283F8382078685F
:101E3C00FEF7C0FB7B68242283F839207B681B6883
:101E4C00DA687B681B6822F40052DA60786800F06C
:101E5C0041FB7B681B681A697B681B6822F4904203
:101E6C001A617B681B685A697B681B6822F02A021E
:101E7C005A617B681B68DA687B681B6842F4005205
:101E8C00DA607B680022DA637B68202283F83920D1
:101E9C007B68202283F83A20002318460837BD4679
:101EAC0080BD80B588B002AFF860B9603B60134666
:101EBC00FB8000237B61FB6893F83930DBB2202B6D
:101ECC0040F08380BB68002B02D0FB88002B01D133
:101EDC0001237BE0FB6893F83830012B01D10223FE
:101EEC0074E0FB68012283F83820FB680022DA6377
:101EFC00FB68212283F83920FEF7D2FC7861FB685D
:101F0C00FA889A84FB68FA88DA8442E0FB68DB8CF6
:101F1C009BB2013B9AB2FB68DA84FB689B68B3F511
:101F2C00805F22D13B6800937B6900228021F86896
:101F3C0000F067F90346002B01D0032346E0BB6891
:101F4C003B613B691B881A46FB681B68C2F308029D
:101F5C005A60FB681B69002B03D1BB680233BB6062
:101F6C0017E0BB680133BB6013E03B6800937B69EF
:101F7C0000228021F86800F044F90346002B01D0C0
:101F8C00032323E0BB685A1CBA601A78FB681B68F1
:101F9C005A60FB68DB8C9BB2002BB7D13B6800937B
:101FAC007B6900224021F86800F02BF90346002BD6
:101FBC0001D003230AE0FB68202283F83920FB6858
:101FCC00002283F83820002300E00223184618373B
:101FDC00BD4680BD80B588B000AF78607B681B685B
:101FEC001B68FB617B681B68DB68BB617B681B68DB
:101FFC005B697B6100233B610023FB60FB6903F0A1
:10200C000F033B613B69002B0DD1FB6903F02003EF
:10201C00002B08D0BB6903F02003002B03D0786899
:10202C0000F0D7F9CCE03B69002B00F0AB807B696A
:10203C0003F00103002B05D1BB6903F49073002B53
:10204C0000F0A080FB6903F00103002B0AD0BB69F0
:10205C0003F48073002B05D07B68DB6B43F001022B
:10206C007B68DA63FB6903F00403002B0AD07B69FD
:10207C0003F00103002B05D07B68DB6B43F00202FD
:10208C007B68DA63FB6903F00203002B0AD07B69DF
:10209C0003F00103002B05D07B68DB6B43F00402DB
:1020AC007B68DA63FB6903F00803002B0AD07B69B9
:1020BC0003F00103002B05D07B68DB6B43F00802B7
:1020CC007B68DA637B68DB6B002B78D0FB6903F0F1
:1020DC002003002B07D0BB6903F02003002B02D098
:1020EC00786800F076F97B681B685B6903F0400345
:1020FC00002B14BF01230023DBB2FB607B68DB6B7E
:10210C0003F00803002B02D1FB68002B31D0786858
:10211C0000F0C1F87B681B685B6903F04003002B7F
:10212C0023D07B681B685A697B681B6822F04002CD
:10213C005A617B685B6B002B13D07B685B6B224A0C
:10214C005A637B685B6B1846FEF7C2FC0346002B98
:10215C0016D07B685B6B5B6B7A68526B104698474A
:10216C000EE0786800F044F80AE0786800F040F877
:10217C0006E0786800F03CF87B680022DA631EE029
:10218C0000BF1CE0FB6903F08003002B08D0BB6987
:10219C0003F08003002B03D0786800F0ADF80FE05B
:1021AC00FB6903F04003002B0AD0BB6903F040032A
:1021BC00002B05D0786800F0F4F800BF00E000BFF9
:1021CC002037BD4680BD00BFDD22000880B483B03F
:1021DC0000AF786000BF0C37BD4680BC704780B440
:1021EC0083B000AF786000BF0C37BD4680BC704731
:1021FC0080B483B000AF786000BF0C37BD4680BCA4
:10220C00704780B584B000AFF860B9603B6013468E
:10221C00FB712CE0BB69B3F1FF3F28D0BB69002BED
:10222C0007D0FEF73DFB02463B68D31ABA699A42C7
:10223C001DD2FB681B68DA68FB681B6822F4D0723D
:10224C00DA60FB681B685A69FB681B6822F00102A4
:10225C005A61FB68202283F83920FB68202283F81E
:10226C003A20FB68002283F8382003230FE0FB6838
:10227C001B681A68BB681340BA689A420CBF0123EA
:10228C000023DBB21A46FB799A42C3D000231846CE
:10229C001037BD4680BD80B483B000AF78607B68DA
:1022AC001B68DA687B681B6822F49072DA607B68C2
:1022BC001B685A697B681B6822F001025A617B68B3
:1022CC00202283F83A2000BF0C37BD4680BC7047F3
:1022DC0080B584B000AF78607B685B6AFB60FB689C
:1022EC000022DA85FB680022DA84F868FFF780FFA9
:1022FC0000BF1037BD4680BD80B485B000AF78609C
:10230C007B6893F83930DBB2212B44D17B689B6816
:10231C00B3F5805F1AD17B681B6AFB60FB681B8876
:10232C001A467B681B68C2F308025A607B681B69FB
:10233C00002B05D17B681B6A9A1C7B681A620EE025
:10234C007B681B6A5A1C7B681A6208E07B681B6AF4
:10235C00591C7A6811621A787B681B685A607B6812
:10236C00DB8C9BB2013B9BB27A681946D184002B63
:10237C000FD17B681B68DA687B681B6822F08002CF
:10238C00DA607B681B68DA687B681B6842F0400285
:10239C00DA60002300E0022318461437BD4680BCE7
:1023AC00704780B582B000AF78607B681B68DA68D4
:1023BC007B681B6822F04002DA607B68202283F87D
:1023CC0039207868FFF702FF002318460837BD460E
:1023DC0080BD80B584B000AF78607B6893F83A30EC
:1023EC00DBB2222B71D17B689B68B3F5805F23D164
:1023FC007B689B6AFB607B681B69002B0ED17B683A
:10240C001B685B689BB2C3F308039AB2FB681A8023
:10241C007B689B6A9A1C7B689A6229E07B681B68C4
:10242C005B689BB2DBB29AB2FB681A807B689B6AD2
:10243C005A1C7B689A621BE07B681B69002B0AD1D3
:10244C007B681B6858687B689B6A591C7A68916228
:10245C00C2B21A700CE07B681B685B68DAB27B68EE
:10246C009B6A581C7968886202F07F02D2B21A709B
:10247C007B68DB8D9BB2013B9BB27A681946D18598
:10248C00002B20D17B681B68DA687B681B6822F004
:10249C002002DA607B681B68DA687B681B6822F4B0
:1024AC008072DA607B681B685A697B681B6822F053
:1024BC0001025A617B68202283F83A207868FFF782
:1024CC008EFE002302E0002300E0022318461037A2
:1024DC00BD4680BD80B584B000AF78607B681B685A
:1024EC001B6923F440517B68DA687B681B680A43DC
:1024FC001A617B689A687B681B691A437B685B6905
:10250C001343FB607B681B68DB6823F4B05323F038
:10251C000C037A681268F9680B43D3607B681B68FC
:10252C005B6923F440717B689A697B681B680A437A
:10253C005A617B681B68524A93424ED1FFF7B2F83E
:10254C00B860BA6813469B0013449A001A447B681F
:10255C005B689B00B2FBF3F34A4AA2FB03235B09C3
:10256C001901BA6813469B0013449A001A447B68FD
:10257C005B689B00B2FBF3F2424BA3FB02035B09CB
:10258C00642000FB03F3D31A1B0132333D4AA2FB38
:10259C0003235B0903F0F0031944BA6813469B004C
:1025AC0013449A001A447B685B689B00B2FBF3F2FD
:1025BC00344BA3FB02035B09642000FB03F3D31A27
:1025CC001B0132332F4AA2FB03235B0903F00F02DA
:1025DC007B681B680A449A604DE0FFF74FF8B860BF
:1025EC00BA6813469B0013449A001A447B685B68D4
:1025FC009B00B2FBF3F3234AA2FB03235B091901F3
:10260C00BA6813469B0013449A001A447B685B68B3
:10261C009B00B2FBF3F21B4BA3FB02035B09642090
:10262C0000FB03F3D31A1B013233164AA2FB03231C
:10263C005B0903F0F0031944BA6813469B0013447A
:10264C009A001A447B685B689B00B2FBF3F20D4B5B
:10265C00A3FB02035B09642000FB03F3D31A1B01E9
:10266C003233084AA2FB03235B0903F00F027B6899
:10267C001B680A449A6000BF1037BD4680BD00BF7E
:10268C00003801401F85EB51014B1868704700BFA3
:10269C000C00002070B500250C4E0D4CA41BA41092
:1026AC00A54209D100F034FC00250A4E0A4CA41BAB
:1026BC00A410A54205D170BD56F8253098470135B8
:1026CC00EEE756F8253098470135F2E7C82F000899
:1026DC00C82F0008C82F0008CC2F0008034602445E
:1026EC00934200D1704703F8011BF9E70EB46FF069
:1026FC00004100B59CB01DAB02900690079104916F
:10270C000848094953F8042B0591006802A9019364
:10271C0000F066F80022029B1A701CB05DF804EB06
:10272C0003B070470C0000200802FFFF2DE9F047B2
:10273C008E6882469E420C469046994637D88A89C6
:10274C0012F4906F31D00223256809696F1A6569FC
:10275C0005EB450595FBF3F509F101033B449D425F
:10276C0038BF1D46530530D5294600F037FB0646C9
:10277C0050B90C234FF0FF30CAF80030A38943F056
:10278C004003A381BDE8F0873A46216900F0B6FA10
:10279C00A38923F4906343F08003A38126613E4414
:1027AC0026604E466561ED1BA5604E4500D94E4630
:1027BC0032464146206800F0ACFAA36800209B1B0F
:1027CC00A36023681E442660DCE72A4600F060FB09
:1027DC0006460028E2D12169504600F0B3FAC8E75A
:1027EC002DE9F04F1D468B899DB01F0680460C4687
:1027FC0016460FD50B696BB9402100F0EFFA20603B
:10280C00206128B90C23C8F800304FF0FF30C8E025
:10281C00402363610023099320238DF82930302352
:10282C004FF0010B8DF82A30039537463D4615F8CD
:10283C00013B0BB1252B3ED1B7EB060A0BD053460F
:10284C00324621464046FFF771FF013000F0A4806C
:10285C00099B534409933B78002B00F09D80002387
:10286C004FF0FF32CDE90523049307938DF85330D5
:10287C001A932F46052217F8011B504800F030FA26
:10288C00049BD0B9D90644BF20228DF853201A07D7
:10289C0044BF2B228DF853202A782A2A15D02F4694
:1028AC0000200A25079A394611F8013B303B092BC9
:1028BC004DD9B8B10FE02F46B8E7404A3D46801AD3
:1028CC000BFA00F018430490D3E7039A111D126819
:1028DC000391002A01DB079204E0524243F0020309
:1028EC00079204933B782E2B0CD17B782A2B33D177
:1028FC00039B02371A1D1B680392002BB8BF4FF0C5
:10290C00FF3305932E4D03223978284600F0E8F961
:10291C0038B14023401B03FA00F0049B01370343FA
:10292C0004933978062227487E1C8DF8281000F075
:10293C00D7F9002838D0244B13BB039B073323F063
:10294C00070308330393099B4B4409936DE705FB7D
:10295C00023201200F46A6E700230A25194601374B
:10296C000593384610F8012B303A092A03D9002B6D
:10297C00C8D00591C6E705FB012101230746F0E706
:10298C0003AB00932246114B04A94046AFF30080E1
:10299C00B0F1FF3F8146D6D1A3895B063FF535AF39
:1029AC0009981DB0BDE8F08F03AB00932246074B8E
:1029BC0004A9404600F082F8EAE700BF942F000813
:1029CC009A2F00089E2F00080000000039270008ED
:1029DC002DE9F04791461F468A680B6906469342DB
:1029EC00B8BF1346C9F8003091F843200C46DDF807
:1029FC00208012B10133C9F800302368990642BF18
:102A0C00D9F800300233C9F80030256815F00605F6
:102A1C0007D104F1190AE368D9F800209B1AAB42DC
:102A2C0029DC94F843302268003318BF0123920646
:102A3C002ED404F1430239463046C047013021D030
:102A4C002368E56803F00603042B18BF0025D9F8AA
:102A5C0000204FF0000908BFAD1AA368226908BF17
:102A6C0025EAE5759342C4BF9B1AED181A344D45FF
:102A7C001AD1002008E00123524639463046C0479F
:102A8C00013003D14FF0FF30BDE8F0870135C2E7CC
:102A9C003020E11881F843005A1C94F84510224468
:102AAC00023382F84310C4E70123224639463046EC
:102ABC00C0470130E6D009F10109D8E72DE9F04310
:102ACC0001F1430C0C46097E85B06E29174606466B
:102ADC0098460C9A00F0B38022D8632936D00AD8D5
:102AEC00002900F0B980582900F0838004F14205D8
:102AFC0084F8421032E0642901D06929F6D12068AB
:102B0C001368050603F104012AD51B681160002B1C
:102B1C0003DA2D225B4284F843206F480A2239E005
:102B2C00732900F09D8008D86F2920D07029DDD141
:102B3C00236843F02003236003E0752917D078291C
:102B4C00D4D17823654884F8453055E0136804F1F6
:102B5C004205191D1B68116084F8423001238CE07A
:102B6C001B6810F0400F116018BF1BB2CFE7136841
:102B7C002568181D1060280601D51B6802E0680640
:102B8C00FBD51B886F2914BF0A220822524800214A
:102B9C0084F843106568002DA560C0F2958021680B
:102BAC0021F004012160002B3DD1002D40F08E80DE
:102BBC006546082A0BD12368DB0708D523696268B0
:102BCC009A42DEBF302305F8013C05F1FF35ACEB32
:102BDC0005032361CDF800803B4603AA214630460D
:102BEC00FFF7F6FE01304DD14FF0FF3005B0BDE8D8
:102BFC00F083394884F84510136821681D1D1B6843
:102C0C0015600A060BD5CA0744BF41F020012160AC
:102C1C001BB9226822F0200222601022B7E74D0671
:102C2C0048BF9BB2EFE76546B3FBF2F102FB1133F1
:102C3C00C35C05F8013D0B460029F5D1B9E71368D3
:102C4C002568181D6169106028061B6801D519607C
:102C5C0002E06A06FBD51980002365462361B9E7BB
:102C6C001368191D11601D6862680021284600F068
:102C7C0037F808B1401B606063682361002384F857
:102C8C004330A7E723692A4639463046C04701300E
:102C9C00AAD023689B0713D4E068039B9842B8BF63
:102CAC001846A3E701234A4639463046C04701304F
:102CBC009AD00135E368039A9B1AAB42F2DCEBE73E
:102CCC00002504F11909F5E7002BACD1037804F1C8
:102CDC00420584F842306CE7A52F0008B62F000897
:102CEC0010B5C9B202449042034601D1002303E05F
:102CFC001C7801308C42F6D1184610BD10B5431E1D
:102D0C000A44914200D110BD11F8014B03F8014F58
:102D1C00F7E7884210B501EB020307D8421E99422F
:102D2C000AD011F8014B02F8014FF8E78342F5D9AC
:102D3C008118D21AD34200D110BD13F8014D01F8FD
:102D4C00014DF7E738B50546002943D051F8043C4E
:102D5C000C1F002BB8BFE41800F0D0F81E4A136803
:102D6C00104633B9636014602846BDE8384000F063
:102D7C00C6B8A3420BD921686218934201BF1A68E6
:102D8C005B685218226063600460EDE713465A6872
:102D9C000AB1A242FAD919685818A0420BD120687E
:102DAC000144581882421960DED1106852680144FF
:102DBC0019605A60D8E702D90C232B60D4E720683D
:102DCC0021188A4201BF116852680918216062609B
:102DDC005C60C9E738BD00BFA800002070B5CD1CF1
:102DEC0025F0030508350C2D38BF0C25002D0646A3
:102DFC0001DBA94203D90C233360002070BD00F025
:102E0C007DF8214A1468214691B9204C23681BB9DE
:102E1C00304600F063F820602946304600F05EF83A
:102E2C00431C24D10C233046336000F068F8E4E7EF
:102E3C000B685B1B18D40B2B0FD90B60CC18CD5027
:102E4C00304600F05CF804F10B00231D20F0070065
:102E5C00C31AD3D05A42E250D0E74B688C4216BF0B
:102E6C00636013600C46EBE70C464968CCE7C41C66
:102E7C0024F00304A04205D0211A304600F02EF8AD
:102E8C000130CFD02560DBE7A8000020AC0000208B
:102E9C00F8B5074614460E4621B9BDE8F840114670
:102EAC00FFF79CBF22B9FFF74DFF25462846F8BD1A
:102EBC0000F026F8A0420FD221463846FFF78EFFCD
:102ECC0005460028F2D031462246FFF717FF31465F
:102EDC003846FFF737FFE9E73546E7E738B5002313
:102EEC00054C054608462360FDF7FCFB431C02D14C
:102EFC00236803B12B6038BD340200207047704743
:102F0C0051F8043C181F002BBCBF0B58C01870475D
:102F1C00F8B500BFF8BC08BC9E467047F8B500BFBA
:082F2C00F8BC08BC9E4670478A
:102F340048434C4B3D256C750D0A000032323A3043
:102F4400313A3530000000004D61792031332032B0
:102F5400303230004275696C643A25733A25730D3A
:102F64000A00000002030405060708090A0B0C0DF9
:102F74000E0F10100102000000000000000000000D
:102F8400010203040607080900000000010203040B
:102F9400232D302B2000686C4C006566674546473E
:102FA40000303132333435363738394142434445C1
:102FB4004600303132333435363738396162636430
:042FC400656600003E
:042FC80031010008CB
:042FCC000D010008EB
:102FD0000024F40010000000010000001000002098
:102FE00000000000000000000000000000000000E1
:102FF00000000000000000000000000000000000D1
:1030000000000000000000000000000000000000C0
:1030100000000000000000000000000000000000B0
:1030200000000000000000000000000000000000A0
:103030000000000000000000000000000000000090
:04000005080007B137
:00000001FF
